:100000000C942A000C9447000C9447000C94470071
:100010000C9447000C9447000C9447000C94470044
:100020000C9447000C9447000C9447000C94470034
:100030000C9447000C9447000C9447000C94470024
:100040000C9447000C9447000C9447000C94470014
:100050000C94470011241FBECFE5D8E0DEBFCDBF12
:1000600010E0A0E6B0E0E6EEF9E102C005900D92E6
:10007000A236B107D9F710E0A2E6B0E001C01D92A8
:10008000AB36B107E1F70E948D0C0C94F20C0C9486
:100090000000FC0171836083538342833583248392
:1000A0000895FC01718360835383428335832483E5
:1000B0000895CF93DF93FC01C0E0D0E0808191816F
:1000C0000E949008892B11F4C1E0D0E0CE01DF91AD
:1000D000CF910895EF92FF920F931F93CF93DF93E9
:1000E000EC018A01EE24FF244C815D818881998195
:1000F0000E947008882361F04C815D81B80188817D
:1001000099810E947008882319F081E0E82EF12C73
:10011000C701DF91CF911F910F91FF90EF9008954C
:10012000EF92FF920F931F93CF93DF93EC018A011D
:10013000EE24FF244A815B81888199810E947008A6
:10014000882361F04A815B81B801888199810E948E
:100150007008882319F091E0E92EF12CC701DF9196
:10016000CF911F910F91FF90EF900895FC01428174
:100170005381808191810E94580808950F931F93A5
:10018000CF93DF93EC0164E070E0888199810E9455
:100190009008892B09F49CC34C815D8160E070E07C
:1001A000888199810E947008882309F09AC34C8144
:1001B0005D8161E070E0888199810E9470088823E8
:1001C00059F04C815D8162E070E0888199810E94E4
:1001D0007008882309F09EC34C815D8162E070E065
:1001E000888199810E947008882359F04C815D8133
:1001F00060E070E0888199810E947008882309F08E
:1002000096C34C815D8163E070E0888199810E9492
:100210007008882359F04C815D8164E070E088812A
:1002200099810E947008882309F08FC34C815D81F9
:1002300065E070E0888199810E947008882359F0F8
:100240004C815D8164E070E0888199810E94700832
:10025000882309F088C34C815D8165E070E0888166
:1002600099810E947008882309F01EC34C815D812A
:1002700066E070E0888199810E947008882359F0B7
:100280004C815D8167E070E0888199810E947008EF
:10029000882309F076C34C815D8166E070E0888137
:1002A00099810E947008882359F04C815D8168E033
:1002B00070E0888199810E947008882309F06BC3DF
:1002C0004C815D8167E070E0888199810E947008AF
:1002D000882359F04C815D8168E070E088819981C4
:1002E0000E947008882309F060C34C815D8160E042
:1002F00070E0888199810E947008882359F04C81B0
:100300005D8163E070E0888199810E947008882394
:1003100009F0D4C34C815D8160E070E088819981EF
:100320000E947008882359F04C815D8166E070E07E
:10033000888199810E947008882309F0C9C34C8183
:100340005D8166E070E0888199810E947008882351
:1003500059F04C815D8163E070E0888199810E9451
:100360007008882309F0BEC34C815D8161E070E0B4
:10037000888199810E947008882359F04C815D81A1
:1003800064E070E0888199810E947008882309F0F8
:10039000B6C34C815D8161E070E0888199810E94E3
:1003A0007008882359F04C815D8167E070E0888196
:1003B00099810E947008882309F0ABC34C815D814C
:1003C00067E070E0888199810E947008882359F065
:1003D0004C815D8164E070E0888199810E947008A1
:1003E000882309F0A0C34C815D8162E070E08881C0
:1003F00099810E947008882359F04C815D8165E0E5
:1004000070E0888199810E947008882309F095C363
:100410004C815D8165E070E0888199810E9470085F
:10042000882359F04C815D8168E070E08881998172
:100430000E947008882309F08AC34C815D8162E0C4
:1004400070E0888199810E947008882359F04C815E
:100450005D8168E070E0888199810E94700888233E
:1004600009F07FC34C815D8160E070E088819981F3
:100470000E947008882359F04C815D8164E070E02F
:10048000888199810E947008882309F074C34C8187
:100490005D8164E070E0888199810E947008882302
:1004A00059F04C815D8168E070E0888199810E94FB
:1004B0007008882309F069C34C815D8162E070E0B7
:1004C000888199810E947008882359F04C815D8150
:1004D00064E070E0888199810E947008882309F0A7
:1004E00061C34C815D8166E070E0888199810E94E2
:1004F0007008882359F04C815D8164E070E0888148
:1005000099810E947008882309F056C34A815B8153
:1005100060E070E0888199810E947008882359F01A
:100520004A815B8161E070E0888199810E94700856
:10053000882309F04BC34A815B8161E070E08881C8
:1005400099810E947008882359F04A815B8162E09A
:1005500070E0888199810E947008882309F040C367
:100560004A815B8162E070E0888199810E94700815
:10057000882359F04A815B8160E070E0888199812D
:100580000E947008882309F038C34A815B8163E0C8
:1005900070E0888199810E947008882359F04A810F
:1005A0005B8164E070E0888199810E9470088823F3
:1005B00009F02DC34A815B8165E070E088819981F3
:1005C0000E947008882359F04A815B8164E070E0E2
:1005D000888199810E947008882309F022C34A818A
:1005E0005B8165E070E0888199810E9470088823B2
:1005F00059F04A815B8163E070E0888199810E94B3
:100600007008882309F017C34A815B8166E070E0B7
:10061000888199810E947008882359F04A815B8102
:1006200067E070E0888199810E947008882309F052
:10063000DBC14A815B8166E070E0888199810E941C
:100640007008882359F04A815B8168E070E08881F6
:1006500099810E947008882309F0E9C14A815B8171
:1006600067E070E0888199810E947008882359F0C2
:100670004A815B8168E070E0888199810E947008FE
:10068000882309F0E2C14A815B8160E070E08881E3
:1006900099810E947008882359F04A815B8163E048
:1006A00070E0888199810E947008882309F0DBC17D
:1006B0004A815B8160E070E0888199810E947008C6
:1006C000882359F04A815B8166E070E088819981D6
:1006D0000E947008882309F0D0C14A815B8166E0DE
:1006E00070E0888199810E947008882359F04A81BE
:1006F0005B8163E070E0888199810E9470088823A3
:1007000009F0C5C14A815B8161E070E0888199810F
:100710000E947008882359F04A815B8164E070E090
:10072000888199810E947008882309F0BDC14A819F
:100730005B8161E070E0888199810E947008882364
:1007400009F03DC14A815B8167E070E08881998151
:100750000E947008882359F04A815B8164E070E050
:10076000888199810E947008882309F06EC24A81AD
:100770005B8162E070E0888199810E947008882323
:1007800059F04A815B8165E070E0888199810E941F
:100790007008882309F063C24A815B8165E070E0DC
:1007A000888199810E947008882359F04A815B8171
:1007B00068E070E0888199810E947008882309F0C0
:1007C00058C24A815B8162E070E0888199810E9411
:1007D0007008882359F04A815B8168E070E0888165
:1007E00099810E947008882309F04DC24A815B817B
:1007F00060E070E0888199810E947008882359F038
:100800004A815B8164E070E0888199810E94700870
:10081000882309F042C24A815B8164E070E08881EC
:1008200099810E947008882359F04A815B8168E0B1
:1008300070E0888199810E947008882309F037C28E
:100840004A815B8162E070E0888199810E94700832
:10085000882359F04A815B8164E070E08881998146
:100860000E947008882309F02FC24A815B8166E0EC
:1008700070E0888199810E947008882309F0C2C0C5
:1008800000E010E006C00F5F1F4F093011050CF0AB
:1008900025C2B801888199810E949008892B99F717
:1008A0004A815B81B80118C04C815D8163E070E0D2
:1008B000888199810E947008882309F4D7CC64E06C
:1008C00070E0888199810E949008892B09F0CECC34
:1008D0004A815B8164E070E0888199810E945808B8
:1008E000FDC14C815D8161E070E0888199810E9449
:1008F0007008882309F45BCC62E070E088819981FC
:100900000E949008892B09F052CC4A815B8162E0F9
:1009100070E0E2CF60E070E0888199810E949008E9
:10092000BC01892B09F058CC4A815B81D5CF61E0AD
:1009300070E0888199810E949008892B09F061CC30
:100940004A815B8161E070E0C7CF65E070E088813B
:1009500099810E949008892B09F068CC4A815B81BB
:1009600065E070E0B9CF63E070E0888199810E9412
:100970009008892B09F06FCC4A815B8163E070E0BD
:10098000ABCF68E070E0888199810E949008892B44
:1009900009F081CC32C067E070E0888199810E94C3
:1009A0009008892B09F08CCC4BC066E070E0888100
:1009B00099810E949008892B09F097CC4FC04A81F9
:1009C0005B8167E070E0888199810E9470088823CC
:1009D00009F4B8CE64E070E0888199810E949008A3
:1009E000892B09F0AFCE74CF68E070E088819981DF
:1009F0000E949008892B09F01CCE4A815B8168E037
:100A000070E06ACF4A815B8164E070E088819981FF
:100A10000E947008882309F433CF62E070E0888177
:100A200099810E949008892B09F02ACF6ECF67E048
:100A300070E0888199810E949008892B09F00ECE80
:100A40004A815B8167E070E047CF66E070E08881B3
:100A500099810E949008892B09F015CE4A815B810B
:100A600066E070E039CF66E070E0888199810E948D
:100A70009008892B09F01CCEF1CF63E070E08881EB
:100A800099810E949008892B09F027CE75CF60E0EC
:100A900070E0888199810E949008BC01892B09F03F
:100AA00031CE4A815B8118CF67E070E088819981FF
:100AB0000E949008892B09F03ACEC2CF66E070E020
:100AC000888199810E949008892B09F023CCC6CF98
:100AD00063E070E0888199810E949008892B09F079
:100AE0002ECC4ACF60E070E0888199810E94900806
:100AF000BC01892B09F038CC4A815B81EDCE67E0DF
:100B000070E0888199810E949008892B09F041CC7E
:100B100097CF64E070E0888199810E949008892BCA
:100B200009F04CCCD5CE61E070E0888199810E94BB
:100B30009008892B09F057CC03CF68E070E08881DA
:100B400099810E949008892B09F062CC56CF62E00F
:100B500070E0888199810E949008892B09F06DCC02
:100B6000D4CE65E070E0888199810E949008892B3D
:100B700009F078CCF3CE68E070E0888199810E941A
:100B80009008892B09F083CC38CF60E070E0888131
:100B900099810E949008BC01892B09F08DCC4A8173
:100BA0005B819ACE66E070E0888199810E9490080E
:100BB000892B09F096CC52CF62E070E08881998150
:100BC0000E949008892B09F0A1CC9FCE62E070E0D2
:100BD000888199810E949008892B09F0ACCC95CE30
:100BE00060E070E0888199810E949008BC01892BA7
:100BF00009F0B6CC4A815B816FCE61E070E08881FC
:100C000099810E949008892B09F0BFCC99CE65E0AC
:100C100070E0888199810E949008892B09F0CACCE4
:100C20009DCE63E070E0888199810E949008892BB5
:100C300009F0D5CCA1CE64E070E0888199810E9452
:100C40009008892B09F0E0CC43CE61E070E0888108
:100C500099810E949008892B09F089CD71CE68E0B6
:100C600070E0888199810E949008892B09F094CDC9
:100C7000C4CE62E070E0888199810E949008892B3F
:100C800009F09FCD42CE65E070E0888199810E9495
:100C90009008892B09F0AACD61CE68E070E08881C8
:100CA00099810E949008892B09F0B5CDA6CE60E00D
:100CB00070E0888199810E949008BC01892B09F01D
:100CC000BFCD4A815B8108CE66E070E08881998162
:100CD0000E949008892B09F0C8CDC0CEDF91CF913A
:100CE0001F910F9108950F931F938C010E94330859
:100CF00082E090E0F801938B828B1F910F91089511
:100D00000F931F938C010E94330882E090E0F8015A
:100D1000938B828B1F910F91089520E030E0FC01AE
:100D200082899389019711F021E030E0C90108958B
:100D300020E030E0FC0182899389029711F021E0E4
:100D400030E0C90108950F931F93CF93DF938C0177
:100D5000EB01AB0160E070E00E947008882349F06D
:100D6000AE0161E070E0C8010E947008882309F0BC
:100D700091C0AE0163E070E0C8010E947008882352
:100D800009F060C0AE0166E070E0C8010E94700822
:100D9000882349F0AE0167E070E0C8010E94700846
:100DA000882309F083C0AE0160E070E0C8010E94B2
:100DB0007008882349F0AE0164E070E0C8010E9429
:100DC0007008882309F07EC0AE0162E070E0C801BF
:100DD0000E947008882349F0AE0164E070E0C80109
:100DE0000E947008882309F079C0AE0160E070E0CD
:100DF000C8010E947008882349F0AE0163E070E0EA
:100E0000C8010E947008882309F074C0AE0161E037
:100E100070E0C8010E947008882349F0AE0164E0C8
:100E200070E0C8010E947008882309F06FC0AE010D
:100E300062E070E0C8010E9470088823C1F480E07D
:100E400090E06FC0AE0164E070E0C8010E947008DD
:100E5000882309F497CFAE0165E070E0C8010E94D5
:100E60007008882309F48ECF81E090E05AC0AE016B
:100E700065E070E0C8010E947008882301F3AE01AC
:100E800068E070E0C8010E9470088823C1F281E028
:100E900090E047C0AE0162E070E0C8010E947008B7
:100EA000882309F466CF81E090E03BC0AE0168E0A2
:100EB00070E0C8010E947008882309F474CF81E0B3
:100EC00090E02FC0AE0168E070E0C8010E94700899
:100ED000882309F479CF81E090E023C0AE0166E079
:100EE00070E0C8010E947008882309F47ECF81E079
:100EF00090E017C0AE0166E070E0C8010E94700883
:100F0000882309F483CF81E090E00BC0AE0167E055
:100F100070E0C8010E947008882309F488CF81E03E
:100F200090E0DF91CF911F910F910895CF93DF93C0
:100F3000EC0161E070E00E94A306882319F081E0D3
:100F400090E00CC062E070E0CE010E94A30688230E
:100F500019F480E090E002C082E090E0DF91CF9150
:100F600008950F931F93CF93DF938C01C0E0D0E0DF
:100F7000BE01C8010E9490080097C9F02196C930AF
:100F8000D105B4F3C0E0D0E061E070E0C8010E9498
:100F9000A306882311F0CE010AC062E070E0C80108
:100FA0000E94A3068823B9F7C1E0D0E0F4CFDF9117
:100FB000CF911F910F910895EF92FF920F931F937E
:100FC000CF93DF938C01EE24FF2461E070E00E9458
:100FD000A306882321F081E0E82EF12C28C062E0EE
:100FE00070E0C8010E94A3068823A9F7E701BE01AB
:100FF000C8010E949008892BD1F02196C930D105F3
:10100000B4F3C0E0D0E061E070E0C8010E94A30644
:10101000882319F0CC2359F0DECF62E070E0C801DC
:101020000E94A3068823B1F7C1E0D0E0F3CFC70147
:10103000DF91CF911F910F91FF90EF90089521E0E4
:1010400030E0FC01338B228B089522E030E0FC017C
:10105000338B228B0895FC014096119211928E17CA
:101060009F07DCF70895FC014096119211928E17AC
:101070009F07DCF70895FC014096119211928E179C
:101080009F07DCF70895FB016930710570F420E0DB
:1010900030E0E60FF71FE80FF91F80819181892B5F
:1010A00011F421E030E0C901089580E090E0089556
:1010B0006930710568F4FB01E60FF71FE80FF91FAF
:1010C00080819181009721F44330510520F00895EB
:1010D00080E090E008955183408381E090E008959E
:1010E0009C01DB016930710550F4FB01E60FF71F2D
:1010F000E80FF91F80819181009709F40895E0E0DD
:10110000F0E0AA0FBB1FA20FB31F8D919C91841713
:10111000950711F0CF010895E1E0F0E0CF01FBCF9A
:10112000FB01E60FF71FE80FF91F808191810895F9
:10113000CF92DF92EF92FF920F931F93CF93DF93A3
:1011400000E010E02AEFC22ED12C7C010E94E808BA
:10115000F70140815181B8010E94A309C60101979E
:10116000F1F7C8E0D0E00E94E80840E050E0B801A4
:101170000E94A3092197D7FFF6CF0F5F1F4F22E0F0
:1011800030E0E20EF31E0930110504F3DF91CF9138
:101190001F910F91FF90EF90DF90CF90089580E81E
:1011A00084BF84BFBB9AB99AA79AD19ABF9ABD9AB5
:1011B000D79AD59AD39ABA9AB89AA69AD09ABE9A3A
:1011C000BC9AD69AD49AD29A8A9A8B9A8C9A089573
:1011D000809162008823D9F430E834BF34BFBB9AD1
:1011E000B99AA79AD19ABF9ABD9AD79AD59AD39A03
:1011F000BA9AB89AA69AD09ABE9ABC9AD69AD49A13
:10120000D29A8A9A8B9A8C9A21E0209362008AE67D
:1012100090E0089580E884BF84BFBB9AB99AA79AEA
:10122000D19ABF9ABD9AD79AD59AD39ABA9AB89AB0
:10123000A69AD09ABE9ABC9AD69AD49AD29A8A9AE8
:101240008B9A8C9A089521E030E09D9903C080E04C
:1012500090E0089583B39927929582958F7089279E
:101260009F7089278227932780FD4CC083B39927DD
:101270009695879596958795969587958227932736
:1012800080FD43C083B3992796958795969587955A
:101290008227932780FF02C0C901089583B399274D
:1012A000969587958227932780FD32C083B3822746
:1012B00080FD31C0879B23C080B399270024880F0D
:1012C000991F001C880F991F001C892F902D8227C1
:1012D000932780FD23C080B3992796958795929593
:1012E00082958F7089279F7089278227932780FF97
:1012F00003C088E090E008958FEF9FEF089582E0AB
:1013000090E0089583E090E0089586E090E00895ED
:1013100084E090E0089587E090E0089585E090E013
:10132000089520E030E041E050E09D990AC083B389
:10133000992796958795969587958427952780FD7B
:101340009A01C90108956430710529F1653071056C
:1013500084F46130710509F449C062307105CCF143
:101360006230710509F457C06330710509F45CC03F
:1013700008956630710509F442C066307105A4F421
:101380004130510509F466C04230510509F46BC083
:10139000DD98DC98089541305105D1F14230510576
:1013A000A9F0C798C69808956730710509F449C037
:1013B00068307105E9F64130510509F46FC04230DB
:1013C000510509F471C0DB98DA980895C798C69A58
:1013D0000895672B91F54130510509F459C0423009
:1013E000510509F45EC0C398C29808954130510573
:1013F000A1F142305105D1F1D998D89808954130E2
:10140000510571F142305105A1F1AF98AE980895A0
:10141000C79AC69808954130510581F04230510570
:1014200059F1DF98DE9808954130510541F142307D
:10143000510559F1C198C09808950895DF9ADE9832
:10144000089541305105F1F04230510521F1C59820
:10145000C4980895DD9ADC980895D99AD89808958B
:10146000AF9AAE980895DD98DC9A0895D998D89AE5
:101470000895AF98AE9A0895DF98DE9A0895C19ABC
:10148000C0980895C59AC4980895C198C09A0895BF
:10149000C39AC2980895C598C49A0895DB9ADA98B9
:1014A0000895C398C29A0895DB98DA9A0895613036
:1014B000710551F06230710551F06330710559F0DA
:1014C0009298939894980895929A9398FBCF9298B3
:1014D000939A9498089592989398949A0895CF9295
:1014E000DF92EF92FF920F931F93CF93DF93CDB7CD
:1014F000DEB764970FB6F894DEBF0FBECDBF0E9473
:10150000E8087C01CC24DD24CE0101960E948006EF
:1015100029C061E070E0C7010E94570AC7010E941C
:10152000230941E050E0BC01CE01840F951F0E94C9
:101530005808882309F049C0C7010E9491098823EF
:10154000E9F10894C11CD11C85E6C816D1040CF041
:10155000B0C060E070E0C7010E94570ACE0101965A
:101560000E949808CE0101960E94DC07882391F51D
:10157000CE0101960E948D06882359F6CE01019670
:101580000E9498068823C1F262E070E0C7010E94C1
:10159000570AC7010E94230942E050E0BC01CE0176
:1015A00001960E945808882339F2CE0101960E94C4
:1015B0002508C7010E949109882319F6CC24DD244F
:1015C00085E6C816D1042CF274C0CE0101960E94A3
:1015D0001F08B2CFCE0101960E94B107882309F4FB
:1015E0003CC041E050E060E070E0C7010E94A30908
:1015F00041E050E0BA01C7010E94A30941E050E078
:1016000063E070E0C7010E94A30942E050E065E09A
:1016100070E0C7010E94A30942E050E067E070E07B
:10162000C7010E94A30942E050E068E070E0C701F2
:101630000E94A30963E070E0C7010E94570A28E9ED
:101640003AE389E190E00197F1F721503040C9F782
:10165000CE0101960E942B0857CFCE0101960E9421
:101660009607BC018130910599F0029741F7C701B7
:101670000E94570A00E010E042E050E0B801C701C4
:101680000E94A3090F5F1F4F09301105ACF3D7CF9C
:10169000C7010E94570A00E010E041E050E0B801A5
:1016A000C7010E94A3090F5F1F4F09301105ACF35A
:1016B000C6CF02E010E010936100009360006496D2
:1016C0000FB6F894DEBF0FBECDBFDF91CF911F9153
:1016D0000F91FF90EF90DF90CF900895AF92BF925F
:1016E000CF92DF92EF92FF920F931F93CF93DF93EE
:1016F000CDB7DEB76A970FB6F894DEBF0FBECDBF89
:101700000E94E8088C01CC24DD2485E1A82EB12CB0
:10171000AC0EBD1EC8010E949109882309F44FC078
:101720000894C11CD11C85E6C816D1040CF0DEC09B
:10173000CE0101960E94800622E030E041E050E0B8
:10174000BE01640F751FC5010E94510010C061E009
:1017500070E0C8010E94570AC5010E94BE00CE0178
:1017600001960E941F08CE0101960E949808CE01A2
:1017700001960E94DC07882329F5CE0101960E947C
:101780008D06882321F7CE0101960E9498068823B2
:1017900051F362E070E0C8010E94570AC8010E943C
:1017A000230942E050E0BC01CE0101960E94580896
:1017B0008823C9F2CE0101960E942508D4CFCC24FB
:1017C000DD24B1CFCE0101960E94B107882309F430
:1017D0003CC041E050E060E070E0C8010E94A30915
:1017E00041E050E0BA01C8010E94A30941E050E085
:1017F00063E070E0C8010E94A30942E050E065E0A8
:1018000070E0C8010E94A30942E050E067E070E088
:10181000C8010E94A30942E050E068E070E0C801FE
:101820000E94A30963E070E0C8010E94570A28E9FA
:101830003AE3A9E1B0E01197F1F721503040C9F740
:10184000CE0101960E942B0865CFCE0101960E9421
:1018500096078130910531F1029749F7EE24FF2474
:1018600062E070E0C8010E94570A68E873E1E9E1AC
:10187000F0E03197F1F761507040C9F7C8010E945C
:10188000570A28E833E189E190E00197F1F7215008
:101890003040C9F70894E11CF11C83E0E816F1041C
:1018A000FCF2C5CFEE24FF2461E070E0C8010E9485
:1018B000570A68E873E189E190E00197F1F7615018
:1018C0007040C9F7C8010E94570A28E833E1A9E12E
:1018D000B0E01197F1F721503040C9F70894E11CAE
:1018E000F11C83E0E816F104FCF2A1CF02E010E065
:1018F00010936100009360006A960FB6F894DEBF03
:101900000FBECDBFDF91CF911F910F91FF90EF9050
:10191000DF90CF90BF90AF900895CFE5D8E0DEBFC5
:10192000CDBF80916000909161008130910509F4F4
:1019300056C0029709F450C081E090E09093610096
:1019400080936000C0E0D0E00E94E80840E050E0F2
:10195000BE010E94A3092196C930D105ACF30E94B3
:10196000E80863E070E00E94570A28E833E1A9E143
:10197000B0E01197F1F721503040C9F70E94E80814
:1019800061E070E00E94570A28E833E1C9E1D0E045
:101990002197F1F721503040C9F70E94E80862E032
:1019A00070E00E94570A28E833E1E9E1F0E031975E
:1019B000F1F721503040C9F70E94E80863E070E079
:1019C0000E94570A28E833E189E190E00197F1F796
:1019D00021503040C9F7A5CF0E946E0BB3CF0E94B3
:0619E0006F0AB0CFFFCF3B
:00000001FF
